:020000040000FA
:06000000D7EF11F0120021
:06002A000100F0230000BC
:080030006000000096000000D2
:08003800FA0EE66E9AEC11F0DD
:10004000E552FA0EE66E9AEC11F0E552FA0EE66E03
:100050009AEC11F0E552FA0EE66E9AEC11F0E552C8
:1000600000D01200080EE66EC7EC11F0E55200D089
:100070001200020EE66EC7EC11F0E55200D012003D
:10008000010EE66EC7EC11F0E55200D01200000040
:10009000000000001200818CFADF819C1200060E25
:1000A000E66E9AEC11F0E5521200F9DFF8DFF7DFA7
:1000B000F6DFF5DF0001010EF56F939E939C819EA4
:1000C000819CF00E9216801694809492829292886F
:1000D0009484948C948EC6DFF00E8016030E8012EA
:1000E000DADFC7DFCDDFD7DFDADFD5DFF00E80164E
:1000F0008082D1DFD4DF280EE66E13D8E5520C0ED5
:10010000E66E0FD8E552010EE66E0BD8E552070EEB
:10011000E66E07D8E5520001F56BE8EC06F000D07A
:100120001200D9CFE6FFE1CFD9FFAADF819E819CE3
:10013000F00E8016FE0EDB380F0B0F0B8012ABDFBC
:10014000F00E8016FE0EDB500F0B8012A4DF91DF45
:1001500000D0E552E7CFD9FF1200D9CFE6FFE1CFBB
:10016000D9FF818E819CF00E8016FE0EDB380F0BBE
:100170000F0B801290DFF00E8016FE0EDB500F0B7F
:10018000801289DF7DDF00D0E552E7CFD9FF120072
:10019000D9CFE6FFE1CFD9FFFD0EDBCFF6FFFE0E94
:1001A000DBCFF7FF0800F55011E0FD0EDBCFF6FFC7
:1001B000FE0EDBCFF7FF0800F550E66ECEDFE5520E
:1001C000FD0EDB2AFE0E01E3DB2AE6D700D0E55266
:1001D000E7CFD9FF1200D9CFE6FFE1CFD9FFFD0E5F
:1001E000DBCFE9FFFE0EDBCFEAFFEF5010E0FD0EA4
:1001F000DBCFE9FFFE0EDBCFEAFFEF50E66EADDFAF
:10020000E552FD0EDB2AFE0E01E3DB2AE8D700D023
:10021000E552E7CFD9FF1200D9CFE6FFE1CFD9FFF2
:10022000D950FD0FE96EFF0EDA20EA6EFF0EEE18D0
:1002300002E1FF0EED1802E1000E20D0FD0EDBCF33
:1002400019F0FE0EDBCF1AF0030E1A02F3CF1AF0EC
:100250001902F3CF19F0F4501A26020E1926000ED7
:100260001A22FD0E19C0DBFFFE0E1AC0DBFFFD0EC9
:10027000DBCFE6FF95EC05F0E55200D0E552E7CF85
:10028000D9FF1200D9CFE6FFE1CFD9FFD950FD0F3A
:10029000E96EFF0EDA20EA6E500EEE1801E1ED5025
:1002A00015E1310EE66E59DFE552300EE66E55DF90
:1002B000E5522C0EE66E51DFE552350EE66E4DDF4F
:1002C000E552300EE66E49DFE55281D0D950FD0F80
:1002D000E96EFF0EDA20EA6E510EEE1801E1ED50E4
:1002E00015E1310EE66E39DFE552320EE66E35DF8E
:1002F000E5522C0EE66E31DFE552360EE66E2DDF4E
:10030000E552300EE66E29DFE55261D0D950FD0F7F
:10031000E96EFF0EDA20EA6E520EEE1801E1ED50A2
:1003200015E1310EE66E19DFE552350EE66E15DF8A
:10033000E5522C0EE66E11DFE552370EE66E0DDF4C
:10034000E552350EE66E09DFE55241D0D950FD0F7A
:10035000E96EFF0EDA20EA6E530EEE1801E1ED5061
:1003600015E1320EE66EF9DEE552310EE66EF5DE8F
:10037000E5522C0EE66EF1DEE552300EE66EEDDE55
:10038000E552310EE66EE9DEE55221D0D950FD0F7F
:10039000E96EFF0EDA20EA6E540EEE1801E1ED5020
:1003A00015E1330EE66ED9DEE552310EE66ED5DE8E
:1003B000E5522C0EE66ED1DEE552350EE66ECDDE50
:1003C000E552310EE66EC9DEE55201D000D0E552AD
:1003D000E7CFD9FF1200D9CFE6FFE1CFD9FF030E57
:1003E000E126020EDB6AD950FD0FE96EFF0EDA201E
:1003F000EA6EFF0EEE1802E1FF0EED180BE0D95089
:10040000FD0FE96EFF0EDA20EA6E550EEE1801E1DF
:10041000ED500CE1800EE66E84DEE552D10EE66E04
:10042000000EE66ED8DEE552E552B2D0840EE66EDE
:1004300078DEE552FD0EDBCF19F0FE0EDBCF1AF0B1
:10044000D8901A5004E6500E195C000E1A5817E3A3
:10045000FD0EDBCF1BF0FE0EDBCF1CF01C3404E2E4
:100460001B505408000E1C540AE3FD0EDBCFE6FFC0
:10047000FE0EDBCFE6FF06DFE552E55289D0FD0E2A
:10048000DB50030D020EF3CFDBFFDBCFE6FF4DDBCE
:10049000E552E66ED950FD0FE96EFF0EDA20EA6EE6
:1004A000E552E750EE6EED6AD9CFE6FFDACFE6FF10
:1004B000FD0EDBCFE6FFFE0EDBCFE6FF46DBE552AF
:1004C000E552E552E552FD0EDBCF19F0FE0EDBCF13
:1004D0001AF0D8901A5004E60A0E195C000E1A5849
:1004E00009E2200EE66E39DEE552DFCFE6FF35DEAB
:1004F000E55209D0010EDBCFE6FF2FDEE552DFCF5C
:10050000E6FF2BDEE5522C0EE66E27DEE552020EEC
:10051000DB2ADBCFE6FF09DBE552E66ED950FD0FA3
:10052000E96EFF0EDA20EA6EE552E750EE6EED6AF4
:10053000D9CFE6FFDACFE6FFFD0EDBCFE6FFFE0EFA
:10054000DBCFE6FF02DBE552E552E552E552FD0E58
:10055000DBCF19F0FE0EDBCF1AF0D8901A5004E66C
:100560000A0E195C000E1A5809E2300EE66EF5DD2F
:10057000E552DFCFE6FFF1DDE55209D0010EDBCF1A
:10058000E6FFEBDDE552DFCFE6FFE7DDE55200D029
:10059000030EE15C02E2E16AE552E16EE552E7CF6B
:1005A000D9FF1200D9CFE6FFE1CFD9FF020EE12635
:1005B000010EE66EBADAE552DE6EDD6AD9CFE9FFEA
:1005C000DACFEAFF010EEE1801E1ED5001E188D229
:1005D000E66AE66A8FDAE552E552010EE66EE66EED
:1005E00089DAE552E552E668020EE66E83DAE552F4
:1005F000E552E66A030EE66E7DDAE552E552020E3A
:10060000E66E040EE66E76DAE552E552850EE66E8B
:10061000050EE66E6FDAE552E552E66A060EE66E04
:1006200069DAE552E552030EE66E070EE66E62DA0F
:10063000E552E552590EE66E080EE66E5BDAE552BB
:10064000E552E66A090EE66E55DAE552E552040E09
:10065000E66E0A0EE66E4EDAE552E552430EE66E9F
:100660000B0EE66E47DAE552E552E66A0C0EE66ED0
:1006700041DAE552E552050EE66E0D0EE66E3ADA07
:10068000E552E552360EE66E0E0EE66E33DAE552B0
:10069000E552E66A0F0EE66E2DDAE552E552060ED9
:1006A000E66E100EE66E26DAE552E5522D0EE66E87
:1006B000110EE66E1FDAE552E552E66A120EE66E9C
:1006C00019DAE552E552070EE66E130EE66E12DAFF
:1006D000E552E552260EE66E140EE66E0BDAE55292
:1006E000E552E66A150EE66E05DAE552E552080EA9
:1006F000E66E160EE66EFED9E552E552220EE66E65
:10070000170EE66EF7D9E552E552E66A180EE66E68
:10071000F1D9E552E552090EE66E190EE66EEAD9F8
:10072000E552E5521E0EE66E1A0EE66EE3D9E5526C
:10073000E552E66A1B0EE66EDDD9E552E5520A0E79
:10074000E66E1C0EE66ED6D9E552E5521B0EE66E3D
:100750001D0EE66ECFD9E552E552E66A1E0EE66E34
:10076000C9D9E552E5520B0EE66E1F0EE66EC2D9F0
:10077000E552E552190EE66E200EE66EBBD9E55243
:10078000E552E66A210EE66EB5D9E552E5520C0E49
:10079000E66E220EE66EAED9E552E552170EE66E13
:1007A000230EE66EA7D9E552E552E66A240EE66E00
:1007B000A1D9E552E5520D0EE66E250EE66E9AD9E8
:1007C000E552E552150EE66E260EE66E93D9E55219
:1007D000E552E66A270EE66E8DD9E552E5520E0E19
:1007E000E66E280EE66E86D9E552E552130EE66EE9
:1007F000290EE66E7FD9E552E552E66A2A0EE66ECC
:1008000079D9E552E5520F0EE66E2B0EE66E72D9DF
:10081000E552E552120EE66E2C0EE66E6BD9E552ED
:10082000E552E66A2D0EE66E65D9E552E552100EE8
:10083000E66E2E0EE66E5ED9E552E552110EE66EBC
:100840002F0EE66E57D9E552E552E66A300EE66E97
:1008500051D9E552E552110EE66E310EE66E4AD9D7
:10086000E552E552100EE66E320EE66E43D9E552C1
:10087000E552E66A330EE66E3DD9E552E552120EB8
:10088000E66E340EE66E36D9E552E5520F0EE66E90
:10089000350EE66E2FD9E552E552E66A360EE66E63
:1008A00029D9E552E552140EE66E370EE66E22D9CE
:1008B000E552E5520E0EE66E380EE66E1BD9E55295
:1008C000E552E66A390EE66E15D9E552E552150E87
:1008D000E66E3A0EE66E0ED9E552E5520D0EE66E64
:1008E0003B0EE66E07D9E552E552E66A3C0EE66E2F
:1008F00001D9E552E552170EE66E3D0EE66EFAD8C6
:10090000E552E5520C0EE66E3E0EE66EF3D8E55269
:10091000E552E66A3F0EE66EEDD8E552E552190E55
:10092000E66E400EE66EE6D8E552E5520B0EE66E38
:10093000410EE66EDFD8E552E552E66A420EE66EFB
:10094000D9D8E552E5521C0EE66E430EE66ED2D8BB
:10095000E552E5520A0EE66E440EE66ECBD8E5523D
:10096000E552E66A450EE66EC5D8E552E5521F0E21
:10097000E66E460EE66EBED8E552E552090EE66E0C
:10098000470EE66EB7D8E552E552E66A480EE66EC7
:10099000B1D8E552E552230EE66E490EE66EAAD8AE
:1009A000E552E552080EE66E4A0EE66EA3D8E55211
:1009B000E552E66A4B0EE66E9DD8E552E552290EE9
:1009C000E66E4C0EE66E96D8E552E552070EE66EE0
:1009D0004D0EE66E8FD8E552E552E66A4E0EE66E93
:1009E00089D8E552E552300EE66E4F0EE66E82D89B
:1009F000E552E552060EE66E500EE66E7BD8E552E5
:100A0000E552E66A510EE66E75D8E552E5523B0EA8
:100A1000E66E520EE66E6ED8E552E552050EE66EB3
:100A2000530EE66E67D8E552E552E66A540EE66E5E
:100A300061D8E552E5524C0EE66E550EE66E5AD878
:100A4000E552E552040EE66E560EE66E53D8E552B8
:100A5000E552010EE66E570EE66E4CD8E552E552B1
:100A6000060EE66E580EE66E45D8E552E552030EC8
:100A7000E66E590EE66E3ED8E552E552010EE66E80
:100A80005A0EE66E37D8E552E5524D0EE66E5B0E15
:100A9000E66E30D8E552E552020EE66E5C0EE66E6A
:100AA00029D8E552E552050EE66E5D0EE66E22D8B7
:100AB000E552E5521F0EE66E5E0EE66E1BD8E5525D
:100AC000E552010EE66E5F0EE66E14D8E552E55271
:100AD000200EE66E600EE66E0DD8E552E55200D0AF
:100AE000020EE15C02E2E16AE552E16EE552E7CF17
:100AF000D9FF1200D9CFE6FFE1CFD9FFF29EA69E23
:100B0000A69CA684FE0EDB50A96EFD0EDB50A86EDF
:100B1000550EA76EAA0EA76EA682A1A8FED7A19811
:100B2000F28EE552E7CFD9FF1200D9CFE6FFE1CF31
:100B3000D9FFA69EA69CFE0EDB50A96EA680A850EB
:100B400000D0E552E7CFD9FF1200D9CFE6FFE1CFC1
:100B5000D9FF020EE126DE6ADD6AFD0EDBCF1BF057
:100B6000FE0EDBCF1CF00A0E0D6E0E6A1BC008F0E5
:100B70001CC009F0B6EC10F004C01BF005C01CF05E
:100B8000300E1B26000E1C22DFCF19F0DF2A010ECB
:100B9000DBCF1AF001E3DB2AFB0EDB501924E96EF0
:100BA000FC0EDB501A20EA6E1BC0EFFFD950FD0F80
:100BB000E96EFF0EDA20EA6E0A0E0D6E0E6AEECFB7
:100BC00008F0EDCF09F0B6EC10F008C0EEFF09C058
:100BD000EDFFEECF19F0EFCF1AF01A3404E21950FE
:100BE0000008000E1A54B9E3FB0EDBCF19F0FC0E1F
:100BF000DBCF1AF0DE501924E96EDD501A20EA6EC0
:100C0000EF6A020EE15C02E2E16AE552E16EE55252
:100C1000E7CFD9FF1200D9CFE6FFE1CFD9FFFD0E14
:100C2000DBCF08F0FE0EDBCF09F00850000197275C
:100C3000095098239A519819E8AE02D0983504D0FB
:100C40009751995D98519A5905E299C097F09AC0C9
:100C500098F002D098C098F098519C19E8AE02D054
:100C60009C3504D09B51975D9C51985905E29BC0DF
:100C700097F09CC098F002D098C098F097C0E6FF1B
:100C800098C0E6FFEBEC01F0E552E552E552E7CF04
:100C9000D9FF1200D9CFE6FFE1CFD9FF020EE1263E
:100CA000D950FD0FE96EFF0EDA20EA6E070EEE1640
:100CB000ED6AFD0EDBCF19F0FE0EDBCF1AF0030E4E
:100CC000D89019361A36E804FBE1400E1910E66E8A
:100CD00091EC00F0E552DE6ADD6ADECF19F0DDCF7F
:100CE0001AF0D8901A5004E6080E195C000E1A5833
:100CF00019E2DECF19F0DDCF1AF0D89019361A3686
:100D0000FB0EDB501924E96EFC0EDB501A20EA6E54
:100D1000EF50E66EADEC00F0E552DF2A010E01E384
:100D2000DB2ADBD7020EE15C02E2E16AE552E16E0A
:100D3000E552E7CFD9FF1200D9CFE6FFE1CFD9FFC7
:100D4000020EE126C60EE66E91EC00F0E552DE6A78
:100D5000DD6ADECF19F0DDCF1AF0D8901A5004E624
:100D6000040E195C000E1A580BE2FE0EDBCFE6FFF4
:100D7000ADEC00F0E552DF2A010E01E3DB2AE9D7F2
:100D8000020EE15C02E2E16AE552E16EE552E7CF74
:100D9000D9FF1200D9CFE6FFE1CFD9FFC30EE66E2F
:100DA00091EC00F0E552FE0EDBCFE6FFADEC00F07B
:100DB000E552CC0EE66E91EC00F0E552FE0EDBCF74
:100DC000E6FFADEC00F0E552E552E7CFD9FF1200A7
:100DD000870EE66E000EE66E000EE66EE66A5ADFDD
:100DE000E552E552E552E552670EE66E000EE66EFC
:100DF000010EE66EE66A4EDFE552E552E552E55237
:100E0000770EE66E000EE66E020EE66EE66A42DFD2
:100E1000E552E552E552E552800EE66E91EC00F0A7
:100E2000E552AF0EE66E000EE66EEBEC00F0E5521A
:100E3000E552C00EE66E91EC00F0E552C00EE66E93
:100E4000000EE66EEBEC00F0E552E5521CEC00F013
:100E5000800EE66E91EC00F0E552D10EE66E000ECB
:100E6000E66EEBEC00F0E552E552C00EE66E91EC5A
:100E700000F0E552E20EE66E000EE66EEBEC00F0DE
:100E8000E552E552F3C0E6FF85DFE552020EE66E5D
:100E900053DFE552D2EC02F00DD8F3CF97F0F4CF48
:100EA00098F097C0E6FF98C0E6FFEBEC01F0E55242
:100EB000E5521200600EE66E38DEE5520001976FD3
:100EC000986B200E971901E1985103E119681A688F
:100ED00004D097C019F098C01AF019C0F3FF1AC0D7
:100EE000F4FF00D01200D9CFE6FFE1CFD9FFE652E0
:100EF0000001971D01E1981D04E1200E196E1A6A88
:100F000004D097C019F098C01AF01950DF6EDFCFE7
:100F1000E6FF600EE66EEEDDE552E55200D0E552EA
:100F2000E552E7CFD9FF12008250010B10E000011B
:100F300060510DE1650502E1000E01D0010E656F03
:100F40006551E8B08282E8A08292010E606F825003
:100F5000010B10E1000160050DE1606B655106E1D8
:100F6000C2DFF3C0E6FF16DFE55204D0F4C0E6FFAF
:100F700011DFE5528050100B0BE00001615108E1D8
:100F8000666B010EE66ED8DEE5520001010E616F60
:100F90008050100B04E10001610501E1616B82509A
:100FA000040B0CE00001625109E1010E666F020EB4
:100FB000E66EC2DEE5520001010E626F8250040B44
:100FC00004E10001620501E1626B8250400B07E021
:100FD0000001635104E1010E636F9D6B9E6B8250B3
:100FE000400B2AE00001630527E19D2B000E9E23A4
:100FF000A0519E19E8AE02D09E3504D09D519F5D50
:101000009E51A05919E2ABC0E6FFACC0E6FFDFD8A5
:10101000E552E552F3CF19F0F4CF1AF019C0E6FF0C
:101020001AC0E6FFF8DDE552E55200019D6B9E6BAC
:10103000A72B000EA82363D88250400B0EE10001BD
:1010400063050BE1010EE66EE66AE5DDE552E55269
:101050000001636B9D6B9E6B85D88250800B07E00F
:101060000001645104E1010E646F9D6B9E6B825020
:10107000800B36E00001640533E19D2B000E9E23BA
:10108000A0519E19E8AE02D09E3504D09D519F5DBF
:101090009E51A05925E2ABC0E6FFACC0E6FF97D851
:1010A000E552E552F3CF1BF0F4CF1CF00868096855
:1010B0001BC00DF01CC00EF0DCEC10F006C019F0E7
:1010C00007C01AF019C0E6FF1AC0E6FFA4DDE5521A
:1010D000E55200019D6B9E6BA72B000EA8230FD835
:1010E0008250800B0BE10001640508E1E668E668C8
:1010F00092DDE552E5520001646B34D81200000124
:10110000A951A71902E1AA51A8192AE1A451A219CB
:10111000E8AE02D0A23504D0A151A35DA251A459DA
:1011200007E2A551A15DA16FA651A259A26F16D0E9
:10113000AC51AE19E8AE02D0AE3504D0AD51AB5DC6
:10114000AE51AC5907E2010EAB25AB6F000EAC21DE
:10115000AC6F04D0ADC0ABF0AEC0ACF0A76BA86B69
:1011600000D012000001A76BA86B9FC0A1F0A0C027
:10117000A2F0AB6BAC6B00D012000001665100D046
:101180001200D9CFE6FFE1CFD9FF000165050EE1DE
:10119000FD0EDB0404E1660502E1000E14D0FE0E34
:1011A000DB0404E1665102E1000E0DD0655102E15D
:1011B000000E09D097C0E6FF98C0E6FF0CEC01F0E6
:1011C000E552E55200D0E552E7CFD9FF1200D9CF62
:1011D000E6FFE1CFD9FF040EE126010EF36E020E09
:1011E000F3CFDBFF030EDB6AD950FD0FE96EFF0E74
:1011F000DA20EA6EEE50ED1004E1010EF36EF46AAF
:1012000033D0010EDE6EDD6ADECF19F0DDCF1AF0CD
:10121000FD0EDBCF1BF0FE0EDBCF1CF01C501A18AE
:10122000E8AE02D01A3404D019501B5C1A501C5876
:1012300010E3D950020FE96EDACFEAFF010ED89021
:10124000EE36ED36E806FBE1DF2A010E01E3DB2A8C
:10125000DBD7020EDBCF19F0030EDBCF1AF019C07B
:10126000F3FF1AC0F4FF00D0040EE15C02E2E16A71
:0C127000E552E16EE552E7CFD9FF120015
:04127C00120C010C43
:10128000100C010C000C000C000C080CD80C040C09
:10129000000C200C000C000C010C020C000C010CCA
:1012A000090C020C290C000C010C010C030C800C25
:1012B0000A0C090C040C000C000C020C030C000CB2
:1012C000000C040C090C210C100C010C000C010C7E
:1012D000220C270C000C070C050C810C030C400C95
:1012E000000C0A0C070C050C010C030C400C000C44
:1012F0000A0C000C000C060C000CFF0C0A0C010C74
:10130000FF0CA10C010C150C800C250C7F0C950C0E
:10131000010C750C080C050C010C090C300C810C2F
:10132000020C090C310C810C020C090C3E0C910CC6
:10133000020C090C320C810C020C090C3F0C910CB4
:10134000020CC00C010C000C270C000CF60C120C4B
:10135000000C010C530C040C400C010C9D0C040CF3
:10136000400C000C000CC4D808DBDBD81200C0D83D
:1013700010DB2ADBD6D81200D9CFE6FFE1CFD9FFA8
:101380000401B6D8FD0EDB50F76EFC0EDB50F66E96
:10139000F86AFE0EDB5011EC0FF0C3D8E552E7CF30
:1013A000D9FF1200D9CFE6FFE1CFD9FF0401A0D8C1
:1013B000FD0EDB50F76EFC0EDB50F66EF86AFE0E8B
:1013C000DB504DEC0EF0ADD8E552E7CFD9FF12005F
:1013D000D9CFE6FFE1CFD9FF04018AD8FC0EDBCFDD
:1013E000E9FFFD0EDBCFEAFFEECFE1FFEECFE2FF3C
:1013F000FA0EDBCFE9FFFB0EDBCFEAFFEFCF10F4F5
:10140000FE0EDBCFE9FF000EEA6E1051F7EC0DF097
:10141000106F000ED8B0FF0E116F1AC4D9FF1BC495
:10142000DAFFFC0EDBCFE9FFFD0EDBCFEAFFE1CFF9
:10143000EEFFE2CFEEFFFA0EDBCFE1FFFB0EDBCFDC
:10144000E2FF10C4E7FF16C4E9FF17C4EAFF18C49F
:10145000E1FF19C4E2FF1151E552E7CFD9FF1200B5
:10146000D9CFE6FFE1CFD9FF040142D8FC0EDBCF94
:10147000E9FFFD0EDBCFEAFFEECFE1FFEECFE2FFAB
:10148000FA0EDBCFE9FFFB0EDBCFEAFFEFCF10F464
:10149000FE0EDBCFE9FF000EEA6E105122EC0EF0DB
:1014A000106F000ED8B0FF0E116F1AC4D9FF1BC405
:1014B000DAFFFC0EDBCFE9FFFD0EDBCFEAFFE1CF69
:1014C000EEFFE2CFEEFFFA0EDBCFE1FFFB0EDBCF4C
:1014D000E2FF10C4E7FF16C4E9FF17C4EAFF18C40F
:1014E000E1FF19C4E2FF1151E552E7CFD9FF120025
:1014F00016C4E6FF17C4E6FF18C4E6FF19C4E6FFEA
:101500001AC4E6FF1BC4E7FFE9CF16F4EACF17F4CD
:10151000E1CF18F4E2CF19F4D9CF1AF4DACF1BF4E3
:10152000120016C4E9FF17C4EAFF18C4E1FF19C48A
:10153000E2FF1AC4D9FF1BC4DAFFE5CF1BF4E5CFE5
:101540001AF4E5CF19F4E5CF18F4E5CF17F4E7CF97
:1015500016F4120004012751600B00083EE1050E4D
:10156000286303D0040E206F36D0060E286301D006
:1015700035D0080E286309D0210E126F040E136FA8
:10158000010E1E6F1F6B259326D0090E286301D014
:101590006AD0000E286301D0CAD0010E286301D0A2
:1015A000EBD0030E286301D0E7D00A0E28630BD0DE
:1015B000220E126F040E136F2B511227010E1E6F95
:1015C0001F6B259308D00B0E2863120024EE22F027
:1015D0002B5129C4DBFF010E1D6F1200800E276303
:1015E0001200010E2A630FD07C0E126F120E136FC1
:1015F00012C4F6FF13C4F7FFF86A0800F5CF1EF413
:101600001F6B2583E8D7020E2A6312D0A00E126F3B
:10161000120E136FA40EF66E120EF76EF86A090022
:10162000F5CF1EF409000900F5CF1FF42583D3D7A9
:10163000030E2A631200F86AF76A2945E40FF66E72
:10164000230EF7220900F5CF12F40800F5CF13F4AA
:1016500012C4F6FF13C4F7FFF86A0800F5CF1EF4B2
:101660001F6B2583B8D7010E1D6F2FEE71F00F0E83
:10167000DE6AE82EFDD724EE22F0030EDE6AE82EA5
:10168000FDD72951216F166E03E1050E206F120060
:10169000060E206F010E106F020E216304D0620E41
:1016A000F66E130E03D0520EF66E130EF76EF86A36
:1016B0000900F5CF11F4115313E0090010C4E9FF3C
:1016C000102B0900F5CFE1FF09000900F5CFE2FF7B
:1016D00009000900F5500900D8A455DA112FEED7FA
:1016E000010E106F020E216304D0640EF66E130E0D
:1016F00003D05A0EF66E130EF76EF86A0900F5CF96
:1017000011F4115313E0090010C4E9FF102B090074
:10171000F5CFE1FF09000900F5CFE2FF090009005C
:10172000F5500900D8A447DA112FEED71200396B13
:101730003A6B27511F0B000803E125B139830ED006
:1017400027511F0B010801E109D027511F0B020887
:1017500007E134D8DF50040B01E03981010E1D6F21
:10176000010E1D631200390E126F040E136F020E6C
:101770001E6F1F6B25931200010E296309D027519C
:101780001F0B000805E12581030E2863259123D74F
:10179000000E2963120027511F0B0208FBE12B5199
:1017A0000F0BF8E00BD8030E286303D0840EDF6E16
:1017B00012D7000E2BAF880EDF6E0DD724EE00F08F
:1017C0002B452B35E846E846D9261200000E6C6200
:1017D00005D000513C0B340805E010D0040E6C62BB
:1017E000120015D0000E1C6F000E1D6F1E6B1F6BBC
:1017F000B1DE000E1D6379D048D977D0020E1C638C
:10180000AFD057D8C80E00BD880E006F1200040E6E
:10181000206306D029516E6E050ED8B4030E206FDA
:10182000010E1C639DD005D8C80E04BD880E046F40
:1018300012001E51106F1F51116F000804E307E1E1
:101840001E51080804E2080E106F000E116F1051AF
:10185000056F1E5F11511F5B0451FC0B1111046FCA
:1018600024EE39F0115102E1105122E025A312D0EB
:1018700012C4F6FF13C4F7FFF86A0900F5CFDEFFC4
:1018800009001007FAE11107F8E2F6CF12F4F7CFDA
:1018900013F40ED012C4E1FF13C4E2FFE6CFDEFF63
:1018A0001007FCE11107FAE2E1CF12F4E2CF13F4E2
:1018B00012000151106F1E270051030B116F1F23DF
:1018C00014EE39F014C4D9FF15C4DAFF115102E146
:1018D00010510AE0E6CFDEFF1007FCE11107FAE243
:1018E000D9CF14F4DACF15F41200000E1D630AD01C
:1018F000080E016F270E026F040E036F840E006F37
:10190000046F2CD027AF1DD01F512E5D04E307E1DB
:101910001E512D5D04E22DC41EF42EC41FF489DF78
:10192000010E1C6F080E016F270E026F040E036F6D
:10193000800E006F390E066F040E076FC80E046F1D
:101940000DD0020E1C6F056BC80E046F080E016FE0
:10195000390E026F040E036FC80E006F6D981200EF
:10196000000E1C6F080E016F270E026F040E036F2E
:10197000880E006F000E046F12000401080E266F1F
:10198000386F456B140E6F6E000E206F256B216B48
:10199000120004016DA60CD8010E206312006DBA6E
:1019A0001200686A696A69806988020E206F1200F5
:1019B0006D6A696A6D86010E206F120004016D6AFE
:1019C000696A000E206F12000401000E205D23E002
:1019D00068A402D069B424D86DB2120068A002D005
:1019E00069B039D868A802D069B816D868AC02D0F6
:1019F00069BC28D868AA02D069BA26D868A202D0E1
:101A000069B227D8030E205D06E368A604D069A654
:101A100002D0DCDE68961200698468986D8212003C
:101A20006D92699468941200040125A11200F8DFF8
:101A30006D84100EDA6ED96AD92EFED7DA2EFCD755
:101A40006D941200689C120070B08ADF7090689AE2
:101A50001200689212006A6A686A9F0E6B6E7B0EB3
:101A6000696E6E6A2FEE71F00F0EDE6AE82EFDD7FA
:101A7000160E706E68B6689668B6FDD76D9870DF02
:101A80002591216B030E206F1200040127511F0BBB
:101A9000010801E01200060E28634BD0210E2A63D4
:101AA0000FD0C40E126F120E136F12C4F6FF13C4C0
:101AB000F7FFF86A0800F5CF1EF41F6B258360D08E
:101AC000220E2A6336D0106B020E216304D0500E12
:101AD000F66E130E03D0440EF66E130EF76EF86A10
:101AE0000900F5CF11F409001151D8B4D3D709007A
:101AF000F5502B5D0CE0114FCDD70900090009000E
:101B0000090009000900090009000900F0D70900CF
:101B10000900F5CF1EF409000900F5CF1FF40900F4
:101B20000900F5CF12F409000900F5CF13F425835D
:101B300027D02751600B2008ADE1020E286309D0A1
:101B4000140E126F000E136F010E1E6F1F6B259384
:101B500017D00A0E286303D02AC414F011D0030E44
:101B6000286309D0150E126F000E136F010E1E6F41
:101B70001F6B259305D00B0E2863120029C415F0A6
:101B8000020E1D6F1200E66E040FE36A2FEE70F076
:101B9000E950D9261A0EDF12E944E846E84604EE79
:101BA00004F0E926020EE1CFEBFF030EE2CFEBFFDC
:101BB000400EEF6E1200E66E040FE36A2FEE70F037
:101BC000E950D9261C0EDF12E944E846E84604EE47
:101BD00000F0E926020EE1CFEBFF030EE2CFEBFFB0
:101BE000E550E92AE7CFEDFF880EEF6E12001D6E7B
:101BF0000401060E205D000ED89009E1E944E84694
:101C0000E84604EE04F0E926E86AD890EFBE120038
:101C1000020EEBCFD9FF030EEBCFDAFFFF0EDB5046
:101C20001D601D6EE92A1D50ED6E04E0E6CFDEFF5B
:101C3000E82EFCD7400EEF16EF7C880EEF121D50F9
:101C4000D88012001D6E0401060E205D000ED89093
:101C500009E1E944E846E84604EE00F0E926E86ACE
:101C6000D890EFBE1200020EEBCFD9FF030EEBCFE0
:101C7000DAFFEC501D601D6EFF0EDB50ED6E1D5047
:101C800004E0DECFE6FFE82EFCD7400EEF16EF7C37
:101C9000880EEF121D50D880120004014D6F060E01
:101CA000205D010E08E14D45E844E84404EE04F0EF
:101CB000E926020EEFBE12004C6B4B6BF86AE86A25
:101CC00093D8DD50DECF4AF48DD8DE5017E0DECF5A
:101CD000F6FFDECFF7FFDECF4CF4DECF4BF44A51F8
:101CE00083D8D9CFE1FFDACFE2FFE86A7DD84A5145
:101CF0004C5D4C6FE6CFDEFFE806FCE20900F550D4
:101D00005FE0516F3F0B526F070B4F6F5241E8403E
:101D1000E840070B506F4F67502B0900F550E16EFC
:101D20000900F550E26E51BD3AD04C514B67E8289E
:101D30005BD85051E6CFDEFFE82EFCD74B5112E0C6
:101D400008084E6F4C5150D84B515AD8DF144D6F84
:101D5000DF6A5051DB32E82CFDD7DB324E2FF9D74A
:101D60004D51DF1252514B274B31E830E830070B11
:101D70004C27070E4B174A514C5DC0E303E14B5112
:101D800001E1BCD722D82ED8E868DE6EF6CFDEFFA0
:101D9000F7CFDEFF4CC4DEFF4BC4DEFF12004FC4A2
:101DA0004DF435D8E714506F4C511ED84BC44DF448
:101DB0002ED8DF12FF0A5053D8B4DF164B2BD4D7DE
:101DC00004D810D8E86ADE6E12004C514B67E82840
:101DD0004A654A51E92AED6E400EEF16EF7C880EF7
:101DE000EF1212004A51040F4D6F020EEBCFD9FFD4
:101DF000030EEBCFDAFF4D51D926000EDA22120086
:101E00004D6BD8804D37E82EFCD74D511200010E96
:101E10004DB1E8464DB3E8464DB3E8464DB5E83A16
:101E2000120004014D6F060E205D010E08E14D45C4
:101E3000E844E84404EE00F0E926020EEFBE12008A
:101E4000E86AD2DFDD50E92AEFCF4DF4DF504A6F68
:101E5000ED6E4D6703D0C0DF040E12004C6B4B6B70
:101E6000F86AC0DFDE504D6F08E0DECFF6FFDECF50
:101E7000F7FFDECF4CF4DECF4BF40900F55001E163
:101E800090D0516F3F0B526F070B4F6F5241E8409C
:101E9000E840070B506F4F67502B4D5117E04C51E6
:101EA00015E04A25A1DFD9CFE1FFDACFE2FFE86AEA
:101EB0009BDF4C51505DDECFE6FFE806FCE24C6D47
:101EC0004A5192DF4B5128E04E6F1FD04C514A5D72
:101ED0006DE051BD4FD0E834E83407E2E83405E264
:101EE000F80BD8804B55525561E34C517DDF4B5177
:101EF00013E04E6FD9CFE1FFDACFE2FF4A5174DF32
:101F00005051E3CFDBFFE806FCE25051DB32E82C16
:101F1000FDD7DB324E2FF9D70900F550E16E0900ED
:101F2000F550E26E5051DECFE6FFE82EFCD7E552C9
:101F30004F510CE065DFE71651AF08D0D8904D3116
:101F40004D19E71403E0FF0E4D19E712030E50631D
:101F500006D051AF02D0E868E7AEE86AE46E5251AD
:101F60004B274B31E830E830070B4C27070E4B1757
:101F70004D6B83D70900F550E16E0900F550E26E14
:101F80004C5132DF4BC44DF442DFDF14506F4FC46D
:101F90004DF43DDFE712FF0A5053D8B4E7164B2B40
:101FA000E0D71ADF1FDFE86ADF6E120015DF4A5143
:101FB0001BDFD9CFE1FFDACFE2FF4C5115DF4C51E7
:101FC0004A5D4C6F04E0DECFE6FFE82EFCD70ADF67
:101FD000E868DE6E0A00F6CFDEFFF7CFDEFF4CC406
:101FE000DEFF4BC4DEFF1200000EF36E00EE00F0C9
:101FF000080E01D81200EA6002D0EE6AFCD7F35056
:08200000E9601200EE6AFCD752
:08200800186A1200D9CFE6FFAF
:10201000E1CFD9FF050EE12681820101046B056B3A
:10202000956A9380939293849386938A81AA20D011
:10203000836A55EC00F094EC07F0BDEC08F0E8B0D2
:102040008182E8A081928150040B01E0010E010120
:10205000066F8150080B01E0010E076F07C1E6FF14
:1020600006C1E6FFC1EC08F0E552E552836EE3D706
:10207000CBDFB3EC09F0836A0101086B0C6B100E27
:1020800001010C15100801E1086B81A603D08192B3
:10209000010E086F81A405D08182030E086F046BC6
:1020A000056BB7EC09F0030EDB6ADF6AB7EC09F0E9
:1020B000CA0EE66E230EE66E010EE66EBCEC09F06B
:1020C000E552E552E552DF6EFF0EDF5C02E0DF50C5
:1020D00002E1030EDB68FF0EDF5CE8E0030EDB507D
:1020E00012E00BC183FF010E01010C15010802E192
:1020F00081920885030E0C15030803E181820C0E02
:102100000813030EDB6A04C102F105C103F102C129
:1021100009F1000E01010217FF0E031703C102F1BE
:10212000036B02C10AF1DE52010EDD6EDB5010E0DE
:10213000B7EC09F0D20EE66E230EE66E010EE66EE7
:10214000D2EC09F0E552E552E552DF6EDF50F0E1E6
:1021500096D7050EE15C02E2E16AE552E16EE552D6
:0C216000E7CFD9FF12001200120012009D
:04216C00006A0EAE49
:10217000BFEF10F00D6C0E1EE86A0E22001E09AEB5
:10218000C7EF10F0086C091EE86A0922001EB1ECC6
:1021900011F009BED7EF10F000AE000C086C091E5C
:1021A000E86A0922046C051EE86A0522000C00BEDC
:1021B000CEEF10F00188FF0C09C013F008C012F038
:1021C00008500D02F4CF07F0F3CF06F009500E02CD
:1021D000F4CF09F0F3CF08F00D02F3500726F450C6
:1021E0000822E86A092212500E02F3500726F45022
:1021F0000822E86A09220EAE02EF11F01250085EC2
:102200001350095A13AE000C0D50085E0E50095AB7
:02221000000CC0
:0E2212002A0EF66E000EF76E000EF86E00013A
:102220000900F550FB6F0900F550FC6F03E1FB67F7
:1022300001D03DD00900F550F66F0900F550F76F59
:102240000900F550F86F09000900F550E96E090022
:10225000F550EA6E090009000900F550F96F090010
:10226000F550FA6F09000900F6CFFDF0F7CFFEF048
:10227000F8CFFFF0F6C0F6FFF7C0F7FFF8C0F8FFA1
:102280000001F95302E1FA5307E00900F550EE6E40
:10229000F907F8E2FA07F9D7FDC0F6FFFEC0F7FF2D
:1022A000FFC0F8FF0001FB07000EFC5BBFD7120068
:1022B000040C030C090C040C160C030C430C000C4E
:1022C0006F0C000C6E0C000C730C000C740C000CEA
:1022D000720C000C750C000C6D0C000C610C000CE9
:1022E000710C000C160C030C440C000C690C000C57
:1022F000700C000C200C000C430C000C6F0C000C3C
:10230000610C000C740C000C650C000C720C000CC1
:10231000060C030C430C000C310C000C0C0C030CD1
:10232000430C000C310C000C200C000C490C000C70
:04233000300C000C61
:0C233400FF0EE350206EEF0E01D0F30E00
:10234000E76EE72EA1EF11F00C0E1F6EE76AE72E85
:10235000A7EF11F01F2EA6EF11F0202E9FEF11F026
:02236000120069
:0E236200056A046A100EE76ED8900836093638
:10237000043605360D50045C0E50055805E30D502B
:0E238000045E0E50055A082AE72EF0D7120010
:02238E00FF0E40
:10239000E350206E480E01D04C0EE76EE72EFED7BC
:0E23A000E76AE72EFED7202EF7D700001200C6
:0223AE0013EE2C
:1023B00000F023EE00F0F86A019C09EC11F0F7EC54
:0A23C00011F006EC10F0FBD712003C
:0623CA00880B01880C01E4
:1023D0000000880801880901880A01000000000047
:0423E00000000000F9
:0A23E400B022B822E42210231C23CB
:0223EE001200DB
:1023F0000000000000000104000E001F00040004A3
:1024000000040004000400040004000400040004AC
:10241000001F000E0004000000100008000400026D
:102420000001000000000000001F00FFFF0000305E
:102430007530751027204E000001000000050020B7
:102440002020434F4E535452554D415120202000DF
:1024500020202044495020434F4154455220202001
:102460000056656C2020302C3030206D6D2F736548
:102470006700202020202020202020202020202035
:062480002020002D2A00BF
:020000040030CA
:0100000024DB
:01000100CC32
:0100020037C6
:010003000EEE
:010005008575
:010006008079
:010008000FE8
:01000900C036
:01000A000FE6
:01000B00E014
:01000C000FE4
:01000D0040B2
:00000001FF
