:020000040000FA
:06000000FCEF07F0120006
:02002A000000D4
:04002C00120C010CA5
:10003000100C010C000C000C000C080CD80C040C6B
:10004000000C200C000C000C010C020C000C010C2C
:10005000090C020C290C000C010C010C030C800C87
:100060000A0C090C040C000C000C020C030C000C14
:10007000000C040C090C210C100C010C000C010CE0
:10008000220C270C000C070C050C810C030C400CF7
:10009000000C0A0C070C050C010C030C400C000CA6
:1000A0000A0C000C000C060C000CFF0C0A0C010CD6
:1000B000FF0CA10C010C150C800C250C7F0C950C71
:1000C000010C750C080C050C010C090C300C810C92
:1000D000020C090C310C810C020C090C3E0C910C29
:1000E000020C090C320C810C020C090C3F0C910C17
:1000F000020CC00C010C000C270C000CA60C000C10
:10010000000C010C530C040C400C010C9D0C040C55
:10011000400C000C000CC4D808DBDBD81200C0D89F
:1001200010DB2ADBD6D81200D9CFE6FFE1CFD9FF0A
:100130000401B6D8FD0EDB50F76EFC0EDB50F66EF8
:10014000F86AFE0EDB50E9EC05F0C3D8E552E7CFC4
:10015000D9FF1200D9CFE6FFE1CFD9FF0401A0D823
:10016000FD0EDB50F76EFC0EDB50F66EF86AFE0EED
:10017000DB5025EC05F0ADD8E552E7CFD9FF1200F2
:10018000D9CFE6FFE1CFD9FF04018AD8FC0EDBCF3F
:10019000E9FFFD0EDBCFEAFFEECFE1FFEECFE2FF9E
:1001A000FA0EDBCFE9FFFB0EDBCFEAFFEFCF10F457
:1001B000FE0EDBCFE9FF000EEA6E1051CFEC04F02B
:1001C000106F000ED8B0FF0E116F1AC4D9FF1BC4F8
:1001D000DAFFFC0EDBCFE9FFFD0EDBCFEAFFE1CF5C
:1001E000EEFFE2CFEEFFFA0EDBCFE1FFFB0EDBCF3F
:1001F000E2FF10C4E7FF16C4E9FF17C4EAFF18C402
:10020000E1FF19C4E2FF1151E552E7CFD9FF120017
:10021000D9CFE6FFE1CFD9FF040142D8FC0EDBCFF6
:10022000E9FFFD0EDBCFEAFFEECFE1FFEECFE2FF0D
:10023000FA0EDBCFE9FFFB0EDBCFEAFFEFCF10F4C6
:10024000FE0EDBCFE9FF000EEA6E1051FAEC04F06F
:10025000106F000ED8B0FF0E116F1AC4D9FF1BC467
:10026000DAFFFC0EDBCFE9FFFD0EDBCFEAFFE1CFCB
:10027000EEFFE2CFEEFFFA0EDBCFE1FFFB0EDBCFAE
:10028000E2FF10C4E7FF16C4E9FF17C4EAFF18C471
:10029000E1FF19C4E2FF1151E552E7CFD9FF120087
:1002A00016C4E6FF17C4E6FF18C4E6FF19C4E6FF4C
:1002B0001AC4E6FF1BC4E7FFE9CF16F4EACF17F430
:1002C000E1CF18F4E2CF19F4D9CF1AF4DACF1BF446
:1002D000120016C4E9FF17C4EAFF18C4E1FF19C4ED
:1002E000E2FF1AC4D9FF1BC4DAFFE5CF1BF4E5CF48
:1002F0001AF4E5CF19F4E5CF18F4E5CF17F4E7CFFA
:1003000016F4120004012751600B00083EE1050EAF
:10031000286303D0040E206F36D0060E286301D068
:1003200035D0080E286309D0210E126F040E136F0A
:10033000010E1E6F1F6B259326D0090E286301D076
:100340006AD0000E286301D0CAD0010E286301D004
:10035000EBD0030E286301D0E7D00A0E28630BD040
:10036000220E126F040E136F2B511227010E1E6FF7
:100370001F6B259308D00B0E2863120024EE22F089
:100380002B5129C4DBFF010E1D6F1200800E276365
:100390001200010E2A630FD02C0E126F000E136F85
:1003A00012C4F6FF13C4F7FFF86A0800F5CF1EF475
:1003B0001F6B2583E8D7020E2A6312D0500E126FEE
:1003C000000E136F540EF66E000EF76EF86A0900F9
:1003D000F5CF1EF409000900F5CF1FF42583D3D70C
:1003E000030E2A631200F86AF76A29452E0FF66E8B
:1003F000100EF7220900F5CF12F40800F5CF13F420
:1004000012C4F6FF13C4F7FFF86A0800F5CF1EF414
:100410001F6B2583B8D7010E1D6F2FEE71F00F0EE5
:10042000DE6AE82EFDD724EE22F0030EDE6AE82E07
:10043000FDD72951216F026E03E1050E206F1200D6
:10044000060E206F010E106F020E216304D0120EF3
:10045000F66E010E03D0020EF66E010EF76EF86A0C
:100460000900F5CF11F4115313E0090010C4E9FF9E
:10047000102B0900F5CFE1FF09000900F5CFE2FFDD
:1004800009000900F5500900D8A455DA112FEED75C
:10049000010E106F020E216304D0140EF66E010ED1
:1004A00003D00A0EF66E010EF76EF86A0900F5CF5A
:1004B00011F4115313E0090010C4E9FF102B0900D7
:1004C000F5CFE1FF09000900F5CFE2FF09000900BF
:1004D000F5500900D8A447DA112FEED71200396B76
:1004E0003A6B27511F0B000803E125B139830ED069
:1004F00027511F0B010801E109D027511F0B0208EA
:1005000007E134D8DF50040B01E03981010E1D6F83
:10051000010E1D631200390E126F040E136F020ECE
:100520001E6F1F6B25931200010E296309D02751FE
:100530001F0B000805E12581030E2863259123D7B1
:10054000000E2963120027511F0B0208FBE12B51FB
:100550000F0BF8E00BD8030E286303D0840EDF6E78
:1005600012D7000E2BAF880EDF6E0DD724EE00F0F1
:100570002B452B35E846E846D9261200000E6C6262
:1005800005D000513C0B340805E010D0040E6C621D
:10059000120015D0000E1C6F000E1D6F1E6B1F6B1E
:1005A000B1DE000E1D6379D048D977D0020E1C63EE
:1005B000AFD057D8C80E00BD880E006F1200040ED1
:1005C000206306D029516E6E050ED8B4030E206F3D
:1005D000010E1C639DD005D8C80E04BD880E046FA3
:1005E00012001E51106F1F51116F000804E307E144
:1005F0001E51080804E2080E106F000E116F105112
:10060000056F1E5F11511F5B0451FC0B1111046F2C
:1006100024EE39F0115102E1105122E025A312D04D
:1006200012C4F6FF13C4F7FFF86A0900F5CFDEFF26
:1006300009001007FAE11107F8E2F6CF12F4F7CF3C
:1006400013F40ED012C4E1FF13C4E2FFE6CFDEFFC5
:100650001007FCE11107FAE2E1CF12F4E2CF13F444
:1006600012000151106F1E270051030B116F1F2341
:1006700014EE39F014C4D9FF15C4DAFF115102E1A8
:1006800010510AE0E6CFDEFF1007FCE11107FAE2A5
:10069000D9CF14F4DACF15F41200000E1D630AD07E
:1006A000080E016F270E026F040E036F840E006F99
:1006B000046F2CD027AF1DD01F512E5D04E307E13E
:1006C0001E512D5D04E22DC41EF42EC41FF489DFDB
:1006D000010E1C6F080E016F270E026F040E036FD0
:1006E000800E006F390E066F040E076FC80E046F80
:1006F0000DD0020E1C6F056BC80E046F080E016F43
:10070000390E026F040E036FC80E006F6D98120051
:10071000000E1C6F080E016F270E026F040E036F90
:10072000880E006F000E046F12000401080E266F81
:10073000386F456B140E6F6E000E206F256B216BAA
:10074000120004016DA60CD8010E206312006DBAD0
:100750001200686A696A69806988020E206F120057
:100760006D6A696A6D86010E206F120004016D6A60
:10077000696A000E206F12000401000E205D23E064
:1007800068A402D069B424D86DB2120068A002D067
:1007900069B039D868A802D069B816D868AC02D058
:1007A00069BC28D868AA02D069BA26D868A202D043
:1007B00069B227D8030E205D06E368A604D069A6B7
:1007C00002D0DCDE68961200698468986D8212009F
:1007D0006D92699468941200040125A11200F8DF5B
:1007E0006D84100EDA6ED96AD92EFED7DA2EFCD7B8
:1007F0006D941200689C120070B08ADF7090689A45
:100800001200689212006A6A686A9F0E6B6E7B0E15
:10081000696E6E6A2FEE71F00F0EDE6AE82EFDD75C
:10082000160E706E68B6689668B6FDD76D9870DF64
:100830002591216B030E206F1200040127511F0B1D
:10084000010801E01200060E28634BD0210E2A6336
:100850000FD0740E126F000E136F12C4F6FF13C484
:10086000F7FFF86A0800F5CF1EF41F6B258360D0F0
:10087000220E2A6336D0106B020E216304D0000EC4
:10088000F66E010E03D0F40EF66E000EF76EF86AE7
:100890000900F5CF11F409001151D8B4D3D70900DC
:1008A000F5502B5D0CE0114FCDD709000900090070
:1008B000090009000900090009000900F0D7090032
:1008C0000900F5CF1EF409000900F5CF1FF4090057
:1008D0000900F5CF12F409000900F5CF13F42583C0
:1008E00027D02751600B2008ADE1020E286309D004
:1008F000000E126F000E136F010E1E6F1F6B2593FB
:1009000017D00A0E286303D02AC400F011D0030EBA
:10091000286309D0010E126F000E136F010E1E6FB7
:100920001F6B259305D00B0E2863120029C401F01C
:10093000020E1D6F1200E66E040FE36A2FEE70F0D8
:10094000E950D9261A0EDF12E944E846E84604EEDB
:1009500004F0E926020EE1CFEBFF030EE2CFEBFF3E
:10096000400EEF6E1200E66E040FE36A2FEE70F099
:10097000E950D9261C0EDF12E944E846E84604EEA9
:1009800000F0E926020EE1CFEBFF030EE2CFEBFF12
:10099000E550E92AE7CFEDFF880EEF6E1200076EF3
:1009A0000401060E205D000ED89009E1E944E846F6
:1009B000E84604EE04F0E926E86AD890EFBE12009B
:1009C000020EEBCFD9FF030EEBCFDAFFFF0EDB50A9
:1009D0000760076EE92A0750ED6E04E0E6CFDEFF00
:1009E000E82EFCD7400EEF16EF7C880EEF12075072
:1009F000D8801200076E0401060E205D000ED8900C
:100A000009E1E944E846E84604EE00F0E926E86A30
:100A1000D890EFBE1200020EEBCFD9FF030EEBCF42
:100A2000DAFFEC500760076EFF0EDB50ED6E0750EB
:100A300004E0DECFE6FFE82EFCD7400EEF16EF7C99
:100A4000880EEF120750D880120004014D6F060E79
:100A5000205D010E08E14D45E844E84404EE04F051
:100A6000E926020EEFBE12004C6B4B6BF86AE86A87
:100A700093D8DD50DECF4AF48DD8DE5017E0DECFBC
:100A8000F6FFDECFF7FFDECF4CF4DECF4BF44A515A
:100A900083D8D9CFE1FFDACFE2FFE86A7DD84A51A7
:100AA0004C5D4C6FE6CFDEFFE806FCE20900F55036
:100AB0005FE0516F3F0B526F070B4F6F5241E840A1
:100AC000E840070B506F4F67502B0900F550E16E5F
:100AD0000900F550E26E51BD3AD04C514B67E82801
:100AE0005BD85051E6CFDEFFE82EFCD74B5112E029
:100AF00008084E6F4C5150D84B515AD8DF144D6FE7
:100B0000DF6A5051DB32E82CFDD7DB324E2FF9D7AC
:100B10004D51DF1252514B274B31E830E830070B73
:100B20004C27070E4B174A514C5DC0E303E14B5174
:100B300001E1BCD722D82ED8E868DE6EF6CFDEFF02
:100B4000F7CFDEFF4CC4DEFF4BC4DEFF12004FC404
:100B50004DF435D8E714506F4C511ED84BC44DF4AA
:100B60002ED8DF12FF0A5053D8B4DF164B2BD4D740
:100B700004D810D8E86ADE6E12004C514B67E828A2
:100B80004A654A51E92AED6E400EEF16EF7C880E59
:100B9000EF1212004A51040F4D6F020EEBCFD9FF36
:100BA000030EEBCFDAFF4D51D926000EDA221200E8
:100BB0004D6BD8804D37E82EFCD74D511200010EF9
:100BC0004DB1E8464DB3E8464DB3E8464DB5E83A79
:100BD000120004014D6F060E205D010E08E14D4527
:100BE000E844E84404EE00F0E926020EEFBE1200ED
:100BF000E86AD2DFDD50E92AEFCF4DF4DF504A6FCB
:100C0000ED6E4D6703D0C0DF040E12004C6B4B6BD2
:100C1000F86AC0DFDE504D6F08E0DECFF6FFDECFB2
:100C2000F7FFDECF4CF4DECF4BF40900F55001E1C5
:100C300090D0516F3F0B526F070B4F6F5241E840FE
:100C4000E840070B506F4F67502B4D5117E04C5148
:100C500015E04A25A1DFD9CFE1FFDACFE2FFE86A4C
:100C60009BDF4C51505DDECFE6FFE806FCE24C6DA9
:100C70004A5192DF4B5128E04E6F1FD04C514A5DD4
:100C80006DE051BD4FD0E834E83407E2E83405E2C6
:100C9000F80BD8804B55525561E34C517DDF4B51D9
:100CA00013E04E6FD9CFE1FFDACFE2FF4A5174DF94
:100CB0005051E3CFDBFFE806FCE25051DB32E82C79
:100CC000FDD7DB324E2FF9D70900F550E16E090050
:100CD000F550E26E5051DECFE6FFE82EFCD7E5522C
:100CE0004F510CE065DFE71651AF08D0D8904D3179
:100CF0004D19E71403E0FF0E4D19E712030E506380
:100D000006D051AF02D0E868E7AEE86AE46E52510F
:100D10004B274B31E830E830070B4C27070E4B17B9
:100D20004D6B83D70900F550E16E0900F550E26E76
:100D30004C5132DF4BC44DF442DFDF14506F4FC4CF
:100D40004DF43DDFE712FF0A5053D8B4E7164B2BA2
:100D5000E0D71ADF1FDFE86ADF6E120015DF4A51A5
:100D60001BDFD9CFE1FFDACFE2FF4C5115DF4C5149
:100D70004A5D4C6F04E0DECFE6FFE82EFCD70ADFC9
:100D8000E868DE6E0A00F6CFDEFFF7CFDEFF4CC468
:100D9000DEFF4BC4DEFF1200000EF36E00EE00F02B
:100DA000040E01D81200EA6002D0EE6AFCD7F350BC
:080DB000E9601200EE6AFCD7B5
:080DB800046A1200D9CFE6FF26
:100DC000E1CFD9FF050EE1260001646B656B956AE2
:100DD0000D0E936EF1DF8BEC00F0836A0001646B03
:100DE000656B8182666B6A6B100E00016A151008D4
:100DF00001E1666B81A603D08192010E666F81A42A
:100E000005D08182030E666F646B656B8FEC00F01A
:100E1000030EDB6ADF6A8FEC00F0140EE66E100E34
:100E2000E66E010EE66E94EC00F0E552E552E552F6
:100E3000DF6EFF0EDF5C02E0DF5002E1030EDB68D5
:100E4000FF0EDF5CE8E0030EDB5012E069C083FFB9
:100E5000010E00016A15010802E181926685030E08
:100E60006A15030803E181820C0E6613030EDB6A28
:100E700064C062F065C063F062C067F0000E0001FC
:100E80006217FF0E631763C062F0636B62C068F0A5
:100E9000DE52010EDD6EDB5010E08FEC00F01C0E18
:100EA000E66E100EE66E010EE66EAAEC00F0E5525C
:100EB000E552E552DF6EDF50F0E196D7050EE15CBA
:100EC00002E2E16AE552E16EE552E7CFD9FF120096
:060ED000120012001200E6
:0A0ED6002A0EF66E000EF76E000EF5
:100EE000F86E00010900F550706F0900F550716F40
:100EF00003E1706701D03DD00900F5506B6F090028
:100F0000F5506C6F0900F5506D6F09000900F55040
:100F1000E96E0900F550EA6E090009000900F55074
:100F20006E6F0900F5506F6F09000900F6CF72F07F
:100F3000F7CF73F0F8CF74F06BC0F6FF6CC0F7FF1B
:100F40006DC0F8FF00016E5302E16F5307E0090026
:100F5000F550EE6E6E07F8E26F07F9D772C0F6FF34
:100F600073C0F7FF74C0F8FF00017007000E715BDB
:040F7000BFD71200D5
:0C0F7400040C030C090C040C160C030CFC
:100F8000430C000C6F0C000C6E0C000C730C000C6E
:100F9000740C000C720C000C750C000C6D0C000C29
:100FA000610C000C710C000C160C030C440C000CB2
:100FB000690C000C700C000C200C000C430C000C95
:100FC0006F0C000C610C000C740C000C650C000C18
:100FD000720C000C060C030C430C000C310C000CC2
:100FE0000C0C030C430C000C310C000C200C000CFE
:080FF000490C000C300C000C50
:080FF80013EE00F023EE00F0FF
:10100000F86A069C6BEC07F01CEC08F0DEEC06F0CE
:04101000FBD71200F8
:0C101400886900886A0000008866008877
:0E10200067008868000000000000000000006B
:02102E00740F3D
:081030007C0FA80FD40FE00FA4
:021038001200A4
:020000040030CA
:0100000024DB
:01000100CC32
:0100020037C6
:010003000EEE
:010005008575
:010006008079
:010008000FE8
:01000900C036
:01000A000FE6
:01000B00E014
:01000C000FE4
:01000D0040B2
:00000001FF
